:100000000C9434000C9449000C9449000C94490061
:100010000C9449000C9449000C9449000C9449003C
:100020000C9449000C9449000C9449000C9449002C
:100030000C9449000C9449000C9449000C9449001C
:100040000C9449000C9449000C9449000C9449000C
:100050000C9449000C9449000C9449000C944900FC
:100060000C9449000C94490011241FBECFEFD8E036
:10007000DEBFCDBF11E0A0E0B1E0E8E5F8E002C0EE
:1000800005900D92AC30B107D9F70E94DF000C94B7
:100090002A040C9400000E94790060E072EC81E078
:1000A00090E00C948900089590917A009068909364
:1000B0007A0090917C008870892B80937C008091DD
:1000C0007A00806180937A0080917A0080648093C6
:1000D0007A0080917A0084FFFCCF20917900809192
:1000E000780090917A009F7790937A00922F0895EC
:1000F0000895529A80E091E00C9453005A9A089522
:100100005A9808955A9A80E00E9454005A9880E0C4
:100110000895CF93DF9300D000D0CDB7DEB79B0119
:10012000AC01220F331F441F551F220F331F441FE2
:10013000551F220F331F441F551F220F331F441F0B
:10014000551F60E074E284EF90E00E942501BA013F
:10015000A9014150510961097109BB27A72F962FA9
:10016000852F8093C5004093C40088E18093C1002F
:100170000F900F900F900F90DF91CF910895909175
:10018000C00095FFFCCF8093C6000895382F292F1B
:10019000CA01DB01892B8A2B8B2B79F0E32FF22FFD
:1001A0009F01240F351F91918091C00085FFFCCFE6
:1001B0009093C600E217F307B1F708950895CDB7FD
:1001C000DEB7A0970FB6F894DEBF0FBECDBF1A8280
:1001D0001982FE0133968EE1DF011D928A95E9F7BF
:1001E0008E010F5F1F4F82E0E82E81E0F82E90E233
:1001F000D92E0E948200282F082E000C330B3F932B
:100200008F93FF92EF921F92DF921F930F930E94A2
:100210004701F80101900020E9F73197E01BF10B4D
:10022000AF0170E060E0C8010E94C600BFEF23ED9F
:1002300080E3B15020408040E1F700C000000FB6DD
:10024000F894DEBF0FBECDBFD4CFA1E21A2EAA1BF9
:10025000BB1BFD010DC0AA1FBB1FEE1FFF1FA21776
:10026000B307E407F50720F0A21BB30BE40BF50B73
:10027000661F771F881F991F1A9469F760957095FC
:10028000809590959B01AC01BD01CF010895AEE032
:10029000B0E0EDE4F1E00C9401040D891E898F8932
:1002A000988D26E02C831A83098397FF02C080E093
:1002B00090E801979E838D83AE01455E5F4F698D07
:1002C0007A8DCE0101960E9477014D815E8157FDA6
:1002D0000AC02F813885421753070CF49A01020F88
:1002E000131FF80110822E96E4E00C941D04AFE079
:1002F000B0E0EDE7F1E00C94F3037C013B018A01EF
:10030000DC0117961C921E92169713968C9181FF12
:10031000C3C19AE0292EFE0131964F01D7011396F1
:100320009C91F30193FD859193FF81913F01882377
:1003300009F448C1853239F493FD859193FF819189
:100340003F01853229F4B70190E00E946503E6CFB2
:10035000B12C412C512CBFE1B51538F08B3209F18D
:1003600088F4803201F1833221F157FC3AC020ED4C
:10037000280F2A3040F556FE1FC0B29C200D1124D4
:10038000B22E06C08D3291F0803379F7689450F820
:10039000F30193FD859193FF81913F018111DBCFA3
:1003A00020C0689451F8689452F8F2CF689453F8DA
:1003B000EFCF689454F8ECCF429C200D1124422ECC
:1003C000689455F8E5CF8E3229F456FCFBC068944A
:1003D00056F8DECF8C3619F4689457F8D9CF8836A2
:1003E000B9F2982F9F7D95549330C0F08336A1F1D8
:1003F0008337C1F1833509F05BC0D801CD90DD9022
:100400008D016B2D70E056FC02C06FEF7FEFC601CF
:100410000E944F035C01689457F80AC00C5F1F4F9D
:10042000EFE3E983AA24A394B12C6401E89457F87C
:1004300053FC04C04A141B0409F018F5342CA11411
:10044000B10431F5332009F469CFB70180E290E0BF
:100450000E9465033A94F6CFD8018C9189830E5F90
:100460001F4FE0CFF801C190D1908F016B2D70E04C
:1004700056FC02C06FEF7FEFC6010E945A035C0179
:10048000D5CFB70180E290E00E9465034A94D2CFB5
:10049000F60157FC859157FE81916F01B70190E0FD
:1004A0000E94650331103A94B1E0AB1AB108C7CF8E
:1004B000843619F0893609F074C0F80157FE6AC015
:1004C00061917191819191918F01E52DEF76DE2EF1
:1004D00097FF09C090958095709561957F4F8F4FDC
:1004E0009F4F6894D7F82AE030E0A4010E9495035A
:1004F000C82EC818AC2C5D2CD6FE0CC0E89450F861
:10050000CB1440F4D4FE05C0D2FC03C05D2D5E7E4A
:10051000552EAB2C54FE98C0FE01EC0DF11D8081D0
:10052000803309F08AC0652D697E562E752D78704E
:10053000372E53FC98C050FE92C0BC2CA41418F463
:100540004C0CB42CBA1854FE94C0B70180E390E070
:100550000E94650352FE09C088E790E051FE02C088
:1005600088E590E0B7010E946503CB1408F48DC0C4
:10057000CA94D12C8FEFC81AD80AC80CD91CD6013E
:100580008E916D01B70190E00E9465038C149D046B
:10059000B1F758CF61917191072E000C880B990B20
:1005A00093CFD52CE894D4F82AE030E0853739F1A0
:1005B000F52DF97FDF2E8037A9F058F48835A9F0A2
:1005C0008F36D9F0F701868197812F96E2E10C945E
:1005D0000F048837B9F7D4FE02C06894D2F820E13E
:1005E00030E00DC06894D4F8F6CF54FE03C02F2F2E
:1005F0002660D22E20E132E002C028E030E0F8018F
:10060000D7FE15C041915191619171914C875D87E1
:100610006E877F878F01A4016C857D858E859F8580
:100620000E949503C82EC818E894D7F863CF81912B
:100630009191AC0170E060E0E9CF52FC02C0A3945C
:1006400075CFA394A39472CF852D867809F46ECFCD
:10065000F6CFB70180E290E00E946503A394A41452
:10066000C0F3312C70CF342C3A18A41408F46BCF9B
:10067000F8CF852D867809F478CF8BE251FE80E2A1
:1006800057FC8DE2B70190E06ECFB70180E390E0B8
:100690000E946503BA9469CF8FEF9FEF96CFFC015C
:1006A0000590615070400110D8F7809590958E0F9D
:1006B0009F1F0895FC016150704001900110D8F710
:1006C000809590958E0F9F1F08950F931F93CF9342
:1006D000DF93182F092FEB018B8181FD09C01FEFDC
:1006E0000FEF812F902FDF91CF911F910F910895E0
:1006F00082FF14C02E813F818C819D81281739078C
:100700003CF4E881F981CF010196998388831083B5
:100710008E819F8101969F838E83E3CFE885F98543
:10072000812F0995892BA1F3DACFFA01AA27283066
:1007300051F1203181F1E8946F936E7F6E5F7F4FAE
:100740008F4F9F4FAF4FB1E03ED0B4E03CD0670F2A
:10075000781F891F9A1FA11D680F791F8A1F911D7D
:10076000A11D6A0F711D811D911DA11D20D009F4CD
:1007700068943F912AE0269F11243019305D31930F
:10078000DEF6CF010895462F4770405D4193B3E0F8
:100790000FD0C9F7F6CF462F4F70405D4A3318F09F
:1007A000495D31FD4052419302D0A9F7EACFB4E050
:1007B000A6959795879577956795BA95C9F7009708
:1007C0006105710508959B01AC010A2E06945795A9
:1007D000479537952795BA95C9F7620F731F841F00
:1007E000951FA01D08952F923F924F925F926F9296
:1007F0007F928F929F92AF92BF92CF92DF92EF92B1
:10080000FF920F931F93CF93DF93CDB7DEB7CA1B31
:10081000DB0B0FB6F894DEBF0FBECDBF09942A885C
:10082000398848885F846E847D848C849B84AA8404
:10083000B984C884DF80EE80FD800C811B81AA8191
:10084000B981CE0FD11D0FB6F894DEBF0FBECDBF5C
:08085000ED010895F894FFCFBB
:0C0858000004526561643A25750D0A0029
:00000001FF
